{
  "contractName": "RomansToken",
  "abi": [
    {
      "constant": true,
      "inputs": [],
      "name": "totalSupply",
      "outputs": [
        {
          "name": "",
          "type": "uint256"
        }
      ],
      "payable": false,
      "stateMutability": "view",
      "type": "function",
      "signature": "0x18160ddd"
    },
    {
      "inputs": [],
      "payable": false,
      "stateMutability": "nonpayable",
      "type": "constructor",
      "signature": "constructor"
    }
  ],
  "bytecode": "0x608060405234801561001057600080fd5b50620f4240600081905550609e806100296000396000f3fe608060405260043610603f576000357c0100000000000000000000000000000000000000000000000000000000900463ffffffff16806318160ddd146044575b600080fd5b348015604f57600080fd5b506056606c565b6040518082815260200191505060405180910390f35b6000548156fea165627a7a72305820cb5a218cd5781c7e0ae54508afc60141c45e062d8d28b3de9b99d467ee5af0930029",
  "source": "pragma solidity ^0.5.0;\n\nimport \"./IERC20.sol\";\n\ncontract RomansToken{ \n    \n    uint256 public totalSupply;\n\n\n    constructor () public {\n        totalSupply = 1000000; \n    }\n\n}",
  "sourcePath": "/Users/roman.pechenkin/pure_knowledge3/dapps/ico/contracts/RomansToken.sol",
  "compiler": {
    "name": "solc",
    "version": "0.5.0+commit.1d4f565a.Emscripten.clang"
  },
  "schemaVersion": "3.0.3",
  "updatedAt": "2019-03-19T06:52:14.460Z",
  "devdoc": {
    "methods": {}
  },
  "userdoc": {
    "methods": {}
  }
}